{
  "_format": "hh-sol-artifact-1",
  "contractName": "Lottery",
  "sourceName": "contracts/Lottery.sol",
  "abi": [
    {
      "inputs": [],
      "stateMutability": "nonpayable",
      "type": "constructor"
    },
    {
      "anonymous": false,
      "inputs": [
        {
          "indexed": true,
          "internalType": "uint256",
          "name": "lotteryId",
          "type": "uint256"
        }
      ],
      "name": "LotteryReset",
      "type": "event"
    },
    {
      "anonymous": false,
      "inputs": [
        {
          "indexed": true,
          "internalType": "address",
          "name": "from",
          "type": "address"
        },
        {
          "indexed": true,
          "internalType": "address",
          "name": "to",
          "type": "address"
        }
      ],
      "name": "OwnershipTransferRequested",
      "type": "event"
    },
    {
      "anonymous": false,
      "inputs": [
        {
          "indexed": true,
          "internalType": "address",
          "name": "from",
          "type": "address"
        },
        {
          "indexed": true,
          "internalType": "address",
          "name": "to",
          "type": "address"
        }
      ],
      "name": "OwnershipTransferred",
      "type": "event"
    },
    {
      "anonymous": false,
      "inputs": [
        {
          "indexed": true,
          "internalType": "address",
          "name": "player",
          "type": "address"
        },
        {
          "indexed": false,
          "internalType": "uint256",
          "name": "amount",
          "type": "uint256"
        }
      ],
      "name": "PlayerEntered",
      "type": "event"
    },
    {
      "anonymous": false,
      "inputs": [
        {
          "indexed": false,
          "internalType": "address",
          "name": "",
          "type": "address"
        },
        {
          "indexed": false,
          "internalType": "uint256",
          "name": "",
          "type": "uint256"
        }
      ],
      "name": "Received",
      "type": "event"
    },
    {
      "anonymous": false,
      "inputs": [
        {
          "indexed": false,
          "internalType": "uint256",
          "name": "requestId",
          "type": "uint256"
        },
        {
          "indexed": false,
          "internalType": "uint256[]",
          "name": "randomWords",
          "type": "uint256[]"
        },
        {
          "indexed": false,
          "internalType": "uint256",
          "name": "payment",
          "type": "uint256"
        }
      ],
      "name": "RequestFulfilled",
      "type": "event"
    },
    {
      "anonymous": false,
      "inputs": [
        {
          "indexed": false,
          "internalType": "uint256",
          "name": "requestId",
          "type": "uint256"
        },
        {
          "indexed": false,
          "internalType": "uint32",
          "name": "numWords",
          "type": "uint32"
        }
      ],
      "name": "RequestSent",
      "type": "event"
    },
    {
      "anonymous": false,
      "inputs": [
        {
          "indexed": true,
          "internalType": "address",
          "name": "winner",
          "type": "address"
        },
        {
          "indexed": false,
          "internalType": "uint256",
          "name": "amount",
          "type": "uint256"
        }
      ],
      "name": "WinnerPicked",
      "type": "event"
    },
    {
      "inputs": [],
      "name": "acceptOwnership",
      "outputs": [],
      "stateMutability": "nonpayable",
      "type": "function"
    },
    {
      "inputs": [],
      "name": "enter",
      "outputs": [],
      "stateMutability": "payable",
      "type": "function"
    },
    {
      "inputs": [],
      "name": "getBalance",
      "outputs": [
        {
          "internalType": "uint256",
          "name": "",
          "type": "uint256"
        }
      ],
      "stateMutability": "view",
      "type": "function"
    },
    {
      "inputs": [],
      "name": "getLotteryId",
      "outputs": [
        {
          "internalType": "uint256",
          "name": "",
          "type": "uint256"
        }
      ],
      "stateMutability": "view",
      "type": "function"
    },
    {
      "inputs": [],
      "name": "getPlayers",
      "outputs": [
        {
          "internalType": "address payable[]",
          "name": "",
          "type": "address[]"
        }
      ],
      "stateMutability": "view",
      "type": "function"
    },
    {
      "inputs": [
        {
          "internalType": "uint256",
          "name": "_requestId",
          "type": "uint256"
        }
      ],
      "name": "getRequestStatus",
      "outputs": [
        {
          "internalType": "uint256",
          "name": "paid",
          "type": "uint256"
        },
        {
          "internalType": "bool",
          "name": "fulfilled",
          "type": "bool"
        },
        {
          "internalType": "uint256[]",
          "name": "randomWords",
          "type": "uint256[]"
        }
      ],
      "stateMutability": "view",
      "type": "function"
    },
    {
      "inputs": [],
      "name": "getWinners",
      "outputs": [
        {
          "internalType": "address[]",
          "name": "",
          "type": "address[]"
        }
      ],
      "stateMutability": "view",
      "type": "function"
    },
    {
      "inputs": [],
      "name": "lastRequestId",
      "outputs": [
        {
          "internalType": "uint256",
          "name": "",
          "type": "uint256"
        }
      ],
      "stateMutability": "view",
      "type": "function"
    },
    {
      "inputs": [],
      "name": "lotteryId",
      "outputs": [
        {
          "internalType": "uint256",
          "name": "",
          "type": "uint256"
        }
      ],
      "stateMutability": "view",
      "type": "function"
    },
    {
      "inputs": [],
      "name": "owner",
      "outputs": [
        {
          "internalType": "address",
          "name": "",
          "type": "address"
        }
      ],
      "stateMutability": "view",
      "type": "function"
    },
    {
      "inputs": [
        {
          "internalType": "uint256",
          "name": "",
          "type": "uint256"
        }
      ],
      "name": "players",
      "outputs": [
        {
          "internalType": "address payable",
          "name": "",
          "type": "address"
        }
      ],
      "stateMutability": "view",
      "type": "function"
    },
    {
      "inputs": [],
      "name": "potWidthdrawalEndTime",
      "outputs": [
        {
          "internalType": "uint256",
          "name": "",
          "type": "uint256"
        }
      ],
      "stateMutability": "view",
      "type": "function"
    },
    {
      "inputs": [
        {
          "internalType": "uint256",
          "name": "_requestId",
          "type": "uint256"
        },
        {
          "internalType": "uint256[]",
          "name": "_randomWords",
          "type": "uint256[]"
        }
      ],
      "name": "rawFulfillRandomWords",
      "outputs": [],
      "stateMutability": "nonpayable",
      "type": "function"
    },
    {
      "inputs": [
        {
          "internalType": "uint256",
          "name": "",
          "type": "uint256"
        }
      ],
      "name": "requestIds",
      "outputs": [
        {
          "internalType": "uint256",
          "name": "",
          "type": "uint256"
        }
      ],
      "stateMutability": "view",
      "type": "function"
    },
    {
      "inputs": [],
      "name": "requestRandomWords",
      "outputs": [
        {
          "internalType": "uint256",
          "name": "requestId",
          "type": "uint256"
        }
      ],
      "stateMutability": "nonpayable",
      "type": "function"
    },
    {
      "inputs": [
        {
          "internalType": "uint256",
          "name": "",
          "type": "uint256"
        }
      ],
      "name": "s_requests",
      "outputs": [
        {
          "internalType": "uint256",
          "name": "paid",
          "type": "uint256"
        },
        {
          "internalType": "bool",
          "name": "fulfilled",
          "type": "bool"
        }
      ],
      "stateMutability": "view",
      "type": "function"
    },
    {
      "inputs": [],
      "name": "startPickingWinner",
      "outputs": [],
      "stateMutability": "nonpayable",
      "type": "function"
    },
    {
      "inputs": [
        {
          "internalType": "address",
          "name": "to",
          "type": "address"
        }
      ],
      "name": "transferOwnership",
      "outputs": [],
      "stateMutability": "nonpayable",
      "type": "function"
    },
    {
      "inputs": [
        {
          "internalType": "uint256",
          "name": "",
          "type": "uint256"
        }
      ],
      "name": "winners",
      "outputs": [
        {
          "internalType": "address",
          "name": "",
          "type": "address"
        }
      ],
      "stateMutability": "view",
      "type": "function"
    },
    {
      "inputs": [],
      "name": "withdrawLink",
      "outputs": [],
      "stateMutability": "nonpayable",
      "type": "function"
    },
    {
      "inputs": [],
      "name": "withdrawPot",
      "outputs": [],
      "stateMutability": "payable",
      "type": "function"
    },
    {
      "stateMutability": "payable",
      "type": "receive"
    }
  ],
  "bytecode": "0x60c0604052620aae6060055f6101000a81548163ffffffff021916908363ffffffff1602179055506003600560046101000a81548161ffff021916908361ffff1602179055506001600560066101000a81548163ffffffff021916908363ffffffff16021790555073779877a7b0d9e8603169ddbd7836e478b46247896005600a6101000a81548173ffffffffffffffffffffffffffffffffffffffff021916908373ffffffffffffffffffffffffffffffffffffffff16021790555073ab18414cd93297b0d12ac29e63ca20f515b3db4660065f6101000a81548173ffffffffffffffffffffffffffffffffffffffff021916908373ffffffffffffffffffffffffffffffffffffffff1602179055503480156200011c575f80fd5b5033805f6005600a9054906101000a900473ffffffffffffffffffffffffffffffffffffffff1660065f9054906101000a900473ffffffffffffffffffffffffffffffffffffffff168173ffffffffffffffffffffffffffffffffffffffff1660808173ffffffffffffffffffffffffffffffffffffffff16815250508073ffffffffffffffffffffffffffffffffffffffff1660a08173ffffffffffffffffffffffffffffffffffffffff168152505050505f73ffffffffffffffffffffffffffffffffffffffff168273ffffffffffffffffffffffffffffffffffffffff160362000240576040517f08c379a0000000000000000000000000000000000000000000000000000000008152600401620002379062000468565b60405180910390fd5b815f806101000a81548173ffffffffffffffffffffffffffffffffffffffff021916908373ffffffffffffffffffffffffffffffffffffffff1602179055505f73ffffffffffffffffffffffffffffffffffffffff168173ffffffffffffffffffffffffffffffffffffffff1614620002c557620002c481620002dd60201b60201c565b5b505050600160098190555042600a81905550620004f6565b3373ffffffffffffffffffffffffffffffffffffffff168173ffffffffffffffffffffffffffffffffffffffff16036200034e576040517f08c379a00000000000000000000000000000000000000000000000000000000081526004016200034590620004d6565b60405180910390fd5b8060015f6101000a81548173ffffffffffffffffffffffffffffffffffffffff021916908373ffffffffffffffffffffffffffffffffffffffff1602179055508073ffffffffffffffffffffffffffffffffffffffff165f8054906101000a900473ffffffffffffffffffffffffffffffffffffffff1673ffffffffffffffffffffffffffffffffffffffff167fed8889f560326eb138920d842192f0eb3dd22b4f139c87a2c57538e05bae127860405160405180910390a350565b5f82825260208201905092915050565b7f43616e6e6f7420736574206f776e657220746f207a65726f00000000000000005f82015250565b5f620004506018836200040a565b91506200045d826200041a565b602082019050919050565b5f6020820190508181035f830152620004818162000442565b9050919050565b7f43616e6e6f74207472616e7366657220746f2073656c660000000000000000005f82015250565b5f620004be6017836200040a565b9150620004cb8262000488565b602082019050919050565b5f6020820190508181035f830152620004ef81620004b0565b9050919050565b60805160a0516125d9620005345f395f818161061701528181610ce30152818161123c0152818161125d015261137801525f61120001526125d95ff3fe60806040526004361061012d575f3560e01c8063a168fa89116100aa578063e0c862891161006e578063e0c86289146103d4578063e580f47b146103fe578063e97dcb6214610428578063f2fde38b14610432578063f71d96cb1461045a578063fc2a88c3146104965761016d565b8063a168fa89146102dd578063a2fb11751461031a578063ceb2c53814610356578063d8a4676f1461036c578063df15c37e146103aa5761016d565b80638796ba8c116100f15780638796ba8c1461020d5780638b5b9ccc146102495780638da5cb5b146102735780638dc654a21461029d578063900aafaf146102b35761016d565b80630c76316d1461017157806312065fe01461017b5780631fe543e3146101a557806379ba5097146101cd57806384f4eafa146101e35761016d565b3661016d577f88a5966d370b9919b20f3e2c13ff65706f196a4e32cc2c12bf57088f885258743334604051610163929190611858565b60405180910390a1005b5f80fd5b6101796104c0565b005b348015610186575f80fd5b5061018f61060e565b60405161019c919061187f565b60405180910390f35b3480156101b0575f80fd5b506101cb60048036038101906101c69190611a23565b610615565b005b3480156101d8575f80fd5b506101e16106b1565b005b3480156101ee575f80fd5b506101f7610840565b604051610204919061187f565b60405180910390f35b348015610218575f80fd5b50610233600480360381019061022e9190611a7d565b610846565b604051610240919061187f565b60405180910390f35b348015610254575f80fd5b5061025d610866565b60405161026a9190611b70565b60405180910390f35b34801561027e575f80fd5b506102876108f1565b6040516102949190611b90565b60405180910390f35b3480156102a8575f80fd5b506102b1610918565b005b3480156102be575f80fd5b506102c7610a7a565b6040516102d4919061187f565b60405180910390f35b3480156102e8575f80fd5b5061030360048036038101906102fe9190611a7d565b610a83565b604051610311929190611bc3565b60405180910390f35b348015610325575f80fd5b50610340600480360381019061033b9190611a7d565b610aaf565b60405161034d9190611b90565b60405180910390f35b348015610361575f80fd5b5061036a610aea565b005b348015610377575f80fd5b50610392600480360381019061038d9190611a7d565b610af5565b6040516103a193929190611ca1565b60405180910390f35b3480156103b5575f80fd5b506103be610c02565b6040516103cb9190611d94565b60405180910390f35b3480156103df575f80fd5b506103e8610c8d565b6040516103f5919061187f565b60405180910390f35b348015610409575f80fd5b50610412610eb6565b60405161041f919061187f565b60405180910390f35b610430610ebc565b005b34801561043d575f80fd5b5061045860048036038101906104539190611dde565b610ffa565b005b348015610465575f80fd5b50610480600480360381019061047b9190611a7d565b61100e565b60405161048d9190611e18565b60405180910390f35b3480156104a1575f80fd5b506104aa611049565b6040516104b7919061187f565b60405180910390f35b5f600860016008805490506104d59190611e5e565b815481106104e6576104e5611e91565b5b905f5260205f20015f9054906101000a900473ffffffffffffffffffffffffffffffffffffffff1690508073ffffffffffffffffffffffffffffffffffffffff163373ffffffffffffffffffffffffffffffffffffffff161461057e576040517f08c379a000000000000000000000000000000000000000000000000000000000815260040161057590611f18565b60405180910390fd5b600a5442106105c2576040517f08c379a00000000000000000000000000000000000000000000000000000000081526004016105b990611f80565b60405180910390fd5b5f4790508173ffffffffffffffffffffffffffffffffffffffff166108fc8290811502906040515f60405180830381858888f19350505050158015610609573d5f803e3d5ffd5b505050565b5f47905090565b7f000000000000000000000000000000000000000000000000000000000000000073ffffffffffffffffffffffffffffffffffffffff163373ffffffffffffffffffffffffffffffffffffffff16146106a3576040517f08c379a000000000000000000000000000000000000000000000000000000000815260040161069a90611fe8565b60405180910390fd5b6106ad828261104f565b5050565b60015f9054906101000a900473ffffffffffffffffffffffffffffffffffffffff1673ffffffffffffffffffffffffffffffffffffffff163373ffffffffffffffffffffffffffffffffffffffff1614610740576040517f08c379a000000000000000000000000000000000000000000000000000000000815260040161073790612050565b60405180910390fd5b5f805f9054906101000a900473ffffffffffffffffffffffffffffffffffffffff169050335f806101000a81548173ffffffffffffffffffffffffffffffffffffffff021916908373ffffffffffffffffffffffffffffffffffffffff1602179055505f60015f6101000a81548173ffffffffffffffffffffffffffffffffffffffff021916908373ffffffffffffffffffffffffffffffffffffffff1602179055503373ffffffffffffffffffffffffffffffffffffffff168173ffffffffffffffffffffffffffffffffffffffff167f8be0079c531659141344cd1fd0a4f28419497f9722a3daafe3b4186f6b6457e060405160405180910390a350565b600a5481565b60038181548110610855575f80fd5b905f5260205f20015f915090505481565b606060078054806020026020016040519081016040528092919081815260200182805480156108e757602002820191905f5260205f20905b815f9054906101000a900473ffffffffffffffffffffffffffffffffffffffff1673ffffffffffffffffffffffffffffffffffffffff168152602001906001019080831161089e575b5050505050905090565b5f805f9054906101000a900473ffffffffffffffffffffffffffffffffffffffff16905090565b61092061116e565b5f6005600a9054906101000a900473ffffffffffffffffffffffffffffffffffffffff1690508073ffffffffffffffffffffffffffffffffffffffff1663a9059cbb338373ffffffffffffffffffffffffffffffffffffffff166370a08231306040518263ffffffff1660e01b815260040161099c9190611b90565b602060405180830381865afa1580156109b7573d5f803e3d5ffd5b505050506040513d601f19601f820116820180604052508101906109db9190612082565b6040518363ffffffff1660e01b81526004016109f8929190611858565b6020604051808303815f875af1158015610a14573d5f803e3d5ffd5b505050506040513d601f19601f82011682018060405250810190610a3891906120d7565b610a77576040517f08c379a0000000000000000000000000000000000000000000000000000000008152600401610a6e9061214c565b60405180910390fd5b50565b5f600954905090565b6002602052805f5260405f205f91509050805f015490806001015f9054906101000a900460ff16905082565b60088181548110610abe575f80fd5b905f5260205f20015f915054906101000a900473ffffffffffffffffffffffffffffffffffffffff1681565b610af2610c8d565b50565b5f8060605f60025f8681526020019081526020015f205f015411610b4e576040517f08c379a0000000000000000000000000000000000000000000000000000000008152600401610b45906121b4565b60405180910390fd5b5f60025f8681526020019081526020015f206040518060600160405290815f8201548152602001600182015f9054906101000a900460ff1615151515815260200160028201805480602002602001604051908101604052809291908181526020018280548015610bdb57602002820191905f5260205f20905b815481526020019060010190808311610bc7575b5050505050815250509050805f015181602001518260400151935093509350509193909250565b60606008805480602002602001604051908101604052809291908181526020018280548015610c8357602002820191905f5260205f20905b815f9054906101000a900473ffffffffffffffffffffffffffffffffffffffff1673ffffffffffffffffffffffffffffffffffffffff1681526020019060010190808311610c3a575b5050505050905090565b5f610c9661116e565b610cd460055f9054906101000a900463ffffffff16600560049054906101000a900461ffff16600560069054906101000a900463ffffffff166111fd565b905060405180606001604052807f000000000000000000000000000000000000000000000000000000000000000073ffffffffffffffffffffffffffffffffffffffff16634306d35460055f9054906101000a900463ffffffff166040518263ffffffff1660e01b8152600401610d4b91906121f0565b602060405180830381865afa158015610d66573d5f803e3d5ffd5b505050506040513d601f19601f82011682018060405250810190610d8a9190612082565b81526020015f151581526020015f67ffffffffffffffff811115610db157610db06118e7565b5b604051908082528060200260200182016040528015610ddf5781602001602082028036833780820191505090505b5081525060025f8381526020019081526020015f205f820151815f01556020820151816001015f6101000a81548160ff0219169083151502179055506040820151816002019080519060200190610e37929190611714565b50905050600381908060018154018082558091505060019003905f5260205f20015f9091909190915055806004819055507fcc58b13ad3eab50626c6a6300b1d139cd6ebb1688a7cced9461c2f7e762665ee81600560069054906101000a900463ffffffff16604051610eab929190612209565b60405180910390a190565b60095481565b600a544211610f00576040517f08c379a0000000000000000000000000000000000000000000000000000000008152600401610ef79061227a565b60405180910390fd5b662386f26fc10000341015610f4a576040517f08c379a0000000000000000000000000000000000000000000000000000000008152600401610f41906122e2565b60405180910390fd5b600733908060018154018082558091505060019003905f5260205f20015f9091909190916101000a81548173ffffffffffffffffffffffffffffffffffffffff021916908373ffffffffffffffffffffffffffffffffffffffff1602179055503373ffffffffffffffffffffffffffffffffffffffff167fc16481c9484122696a660b57df0bf6839645c6b620cb1704ac2437de13be922534604051610ff0919061187f565b60405180910390a2565b61100261116e565b61100b8161140c565b50565b6007818154811061101d575f80fd5b905f5260205f20015f915054906101000a900473ffffffffffffffffffffffffffffffffffffffff1681565b60045481565b5f60025f8481526020019081526020015f205f0154116110a4576040517f08c379a000000000000000000000000000000000000000000000000000000000815260040161109b906121b4565b60405180910390fd5b600160025f8481526020019081526020015f206001015f6101000a81548160ff0219169083151502179055508060025f8481526020019081526020015f2060020190805190602001906110f8929190611714565b507f147eb1ff0c82f87f2b03e2c43f5a36488ff63ec6b730195fde4605f612f8db51828260025f8681526020019081526020015f205f015460405161113f93929190612300565b60405180910390a161116a815f8151811061115d5761115c611e91565b5b6020026020010151611536565b5050565b5f8054906101000a900473ffffffffffffffffffffffffffffffffffffffff1673ffffffffffffffffffffffffffffffffffffffff163373ffffffffffffffffffffffffffffffffffffffff16146111fb576040517f08c379a00000000000000000000000000000000000000000000000000000000081526004016111f290612386565b60405180910390fd5b565b5f7f000000000000000000000000000000000000000000000000000000000000000073ffffffffffffffffffffffffffffffffffffffff16634000aea07f00000000000000000000000000000000000000000000000000000000000000007f000000000000000000000000000000000000000000000000000000000000000073ffffffffffffffffffffffffffffffffffffffff16634306d354886040518263ffffffff1660e01b81526004016112b491906121f0565b602060405180830381865afa1580156112cf573d5f803e3d5ffd5b505050506040513d601f19601f820116820180604052508101906112f39190612082565b878787604051602001611308939291906123c0565b6040516020818303038152906040526040518463ffffffff1660e01b81526004016113359392919061246f565b6020604051808303815f875af1158015611351573d5f803e3d5ffd5b505050506040513d601f19601f8201168201806040525081019061137591906120d7565b507f000000000000000000000000000000000000000000000000000000000000000073ffffffffffffffffffffffffffffffffffffffff1663fc2a88c36040518163ffffffff1660e01b8152600401602060405180830381865afa1580156113df573d5f803e3d5ffd5b505050506040513d601f19601f820116820180604052508101906114039190612082565b90509392505050565b3373ffffffffffffffffffffffffffffffffffffffff168173ffffffffffffffffffffffffffffffffffffffff160361147a576040517f08c379a0000000000000000000000000000000000000000000000000000000008152600401611471906124f5565b60405180910390fd5b8060015f6101000a81548173ffffffffffffffffffffffffffffffffffffffff021916908373ffffffffffffffffffffffffffffffffffffffff1602179055508073ffffffffffffffffffffffffffffffffffffffff165f8054906101000a900473ffffffffffffffffffffffffffffffffffffffff1673ffffffffffffffffffffffffffffffffffffffff167fed8889f560326eb138920d842192f0eb3dd22b4f139c87a2c57538e05bae127860405160405180910390a350565b5f600780549050826115489190612540565b90505f6007828154811061155f5761155e611e91565b5b905f5260205f20015f9054906101000a900473ffffffffffffffffffffffffffffffffffffffff1690505f479050600882908060018154018082558091505060019003905f5260205f20015f9091909190916101000a81548173ffffffffffffffffffffffffffffffffffffffff021916908373ffffffffffffffffffffffffffffffffffffffff16021790555061160360016009546116ff90919063ffffffff16565b6009819055508173ffffffffffffffffffffffffffffffffffffffff167f64791dbae5677392ba76761a5273633cec8f1d9d8cfe808da7bac6ef16a880be8260405161164f919061187f565b60405180910390a26009547f6564d21026f38ac4bc4ef082b01864f3ae6869e139a373fdf664a27a6c6dbebb60405160405180910390a25f67ffffffffffffffff8111156116a05761169f6118e7565b5b6040519080825280602002602001820160405280156116ce5781602001602082028036833780820191505090505b50600790805190602001906116e492919061175f565b50610258426116f39190612570565b600a8190555050505050565b5f818361170c9190612570565b905092915050565b828054828255905f5260205f2090810192821561174e579160200282015b8281111561174d578251825591602001919060010190611732565b5b50905061175b91906117e6565b5090565b828054828255905f5260205f209081019282156117d5579160200282015b828111156117d4578251825f6101000a81548173ffffffffffffffffffffffffffffffffffffffff021916908373ffffffffffffffffffffffffffffffffffffffff1602179055509160200191906001019061177d565b5b5090506117e291906117e6565b5090565b5b808211156117fd575f815f9055506001016117e7565b5090565b5f73ffffffffffffffffffffffffffffffffffffffff82169050919050565b5f61182a82611801565b9050919050565b61183a81611820565b82525050565b5f819050919050565b61185281611840565b82525050565b5f60408201905061186b5f830185611831565b6118786020830184611849565b9392505050565b5f6020820190506118925f830184611849565b92915050565b5f604051905090565b5f80fd5b5f80fd5b6118b281611840565b81146118bc575f80fd5b50565b5f813590506118cd816118a9565b92915050565b5f80fd5b5f601f19601f8301169050919050565b7f4e487b71000000000000000000000000000000000000000000000000000000005f52604160045260245ffd5b61191d826118d7565b810181811067ffffffffffffffff8211171561193c5761193b6118e7565b5b80604052505050565b5f61194e611898565b905061195a8282611914565b919050565b5f67ffffffffffffffff821115611979576119786118e7565b5b602082029050602081019050919050565b5f80fd5b5f6119a061199b8461195f565b611945565b905080838252602082019050602084028301858111156119c3576119c261198a565b5b835b818110156119ec57806119d888826118bf565b8452602084019350506020810190506119c5565b5050509392505050565b5f82601f830112611a0a57611a096118d3565b5b8135611a1a84826020860161198e565b91505092915050565b5f8060408385031215611a3957611a386118a1565b5b5f611a46858286016118bf565b925050602083013567ffffffffffffffff811115611a6757611a666118a5565b5b611a73858286016119f6565b9150509250929050565b5f60208284031215611a9257611a916118a1565b5b5f611a9f848285016118bf565b91505092915050565b5f81519050919050565b5f82825260208201905092915050565b5f819050602082019050919050565b5f611adb82611801565b9050919050565b611aeb81611ad1565b82525050565b5f611afc8383611ae2565b60208301905092915050565b5f602082019050919050565b5f611b1e82611aa8565b611b288185611ab2565b9350611b3383611ac2565b805f5b83811015611b63578151611b4a8882611af1565b9750611b5583611b08565b925050600181019050611b36565b5085935050505092915050565b5f6020820190508181035f830152611b888184611b14565b905092915050565b5f602082019050611ba35f830184611831565b92915050565b5f8115159050919050565b611bbd81611ba9565b82525050565b5f604082019050611bd65f830185611849565b611be36020830184611bb4565b9392505050565b5f81519050919050565b5f82825260208201905092915050565b5f819050602082019050919050565b611c1c81611840565b82525050565b5f611c2d8383611c13565b60208301905092915050565b5f602082019050919050565b5f611c4f82611bea565b611c598185611bf4565b9350611c6483611c04565b805f5b83811015611c94578151611c7b8882611c22565b9750611c8683611c39565b925050600181019050611c67565b5085935050505092915050565b5f606082019050611cb45f830186611849565b611cc16020830185611bb4565b8181036040830152611cd38184611c45565b9050949350505050565b5f81519050919050565b5f82825260208201905092915050565b5f819050602082019050919050565b611d0f81611820565b82525050565b5f611d208383611d06565b60208301905092915050565b5f602082019050919050565b5f611d4282611cdd565b611d4c8185611ce7565b9350611d5783611cf7565b805f5b83811015611d87578151611d6e8882611d15565b9750611d7983611d2c565b925050600181019050611d5a565b5085935050505092915050565b5f6020820190508181035f830152611dac8184611d38565b905092915050565b611dbd81611820565b8114611dc7575f80fd5b50565b5f81359050611dd881611db4565b92915050565b5f60208284031215611df357611df26118a1565b5b5f611e0084828501611dca565b91505092915050565b611e1281611ad1565b82525050565b5f602082019050611e2b5f830184611e09565b92915050565b7f4e487b71000000000000000000000000000000000000000000000000000000005f52601160045260245ffd5b5f611e6882611840565b9150611e7383611840565b9250828203905081811115611e8b57611e8a611e31565b5b92915050565b7f4e487b71000000000000000000000000000000000000000000000000000000005f52603260045260245ffd5b5f82825260208201905092915050565b7f4f6e6c792077696e6e65722063616e20776974686472617720706f74000000005f82015250565b5f611f02601c83611ebe565b9150611f0d82611ece565b602082019050919050565b5f6020820190508181035f830152611f2f81611ef6565b9050919050565b7f546f6f206c6174652c206e657874206c6f7474657279207374617274656400005f82015250565b5f611f6a601e83611ebe565b9150611f7582611f36565b602082019050919050565b5f6020820190508181035f830152611f9781611f5e565b9050919050565b7f6f6e6c792056524620563220777261707065722063616e2066756c66696c6c005f82015250565b5f611fd2601f83611ebe565b9150611fdd82611f9e565b602082019050919050565b5f6020820190508181035f830152611fff81611fc6565b9050919050565b7f4d7573742062652070726f706f736564206f776e6572000000000000000000005f82015250565b5f61203a601683611ebe565b915061204582612006565b602082019050919050565b5f6020820190508181035f8301526120678161202e565b9050919050565b5f8151905061207c816118a9565b92915050565b5f60208284031215612097576120966118a1565b5b5f6120a48482850161206e565b91505092915050565b6120b681611ba9565b81146120c0575f80fd5b50565b5f815190506120d1816120ad565b92915050565b5f602082840312156120ec576120eb6118a1565b5b5f6120f9848285016120c3565b91505092915050565b7f556e61626c6520746f207472616e7366657200000000000000000000000000005f82015250565b5f612136601283611ebe565b915061214182612102565b602082019050919050565b5f6020820190508181035f8301526121638161212a565b9050919050565b7f72657175657374206e6f7420666f756e640000000000000000000000000000005f82015250565b5f61219e601183611ebe565b91506121a98261216a565b602082019050919050565b5f6020820190508181035f8301526121cb81612192565b9050919050565b5f63ffffffff82169050919050565b6121ea816121d2565b82525050565b5f6020820190506122035f8301846121e1565b92915050565b5f60408201905061221c5f830185611849565b61222960208301846121e1565b9392505050565b7f4e657874206c6f7474657279206e6f74207374617274656420796574000000005f82015250565b5f612264601c83611ebe565b915061226f82612230565b602082019050919050565b5f6020820190508181035f83015261229181612258565b9050919050565b7f5469636b657420636f73747320302e30312065746865720000000000000000005f82015250565b5f6122cc601783611ebe565b91506122d782612298565b602082019050919050565b5f6020820190508181035f8301526122f9816122c0565b9050919050565b5f6060820190506123135f830186611849565b81810360208301526123258185611c45565b90506123346040830184611849565b949350505050565b7f4f6e6c792063616c6c61626c65206279206f776e6572000000000000000000005f82015250565b5f612370601683611ebe565b915061237b8261233c565b602082019050919050565b5f6020820190508181035f83015261239d81612364565b9050919050565b5f61ffff82169050919050565b6123ba816123a4565b82525050565b5f6060820190506123d35f8301866121e1565b6123e060208301856123b1565b6123ed60408301846121e1565b949350505050565b5f81519050919050565b5f82825260208201905092915050565b5f5b8381101561242c578082015181840152602081019050612411565b5f8484015250505050565b5f612441826123f5565b61244b81856123ff565b935061245b81856020860161240f565b612464816118d7565b840191505092915050565b5f6060820190506124825f830186611831565b61248f6020830185611849565b81810360408301526124a18184612437565b9050949350505050565b7f43616e6e6f74207472616e7366657220746f2073656c660000000000000000005f82015250565b5f6124df601783611ebe565b91506124ea826124ab565b602082019050919050565b5f6020820190508181035f83015261250c816124d3565b9050919050565b7f4e487b71000000000000000000000000000000000000000000000000000000005f52601260045260245ffd5b5f61254a82611840565b915061255583611840565b92508261256557612564612513565b5b828206905092915050565b5f61257a82611840565b915061258583611840565b925082820190508082111561259d5761259c611e31565b5b9291505056fea2646970667358221220be1e034ac0275a228ef13f42c6bd9920caa38e1fe1f96a5cc144818bf43f1bf864736f6c63430008140033",
  "linkReferences": {},
  "deployedLinkReferences": {}
}