{
  "_format": "hh-sol-artifact-1",
  "contractName": "VRFv2DirectFundingConsumer",
  "sourceName": "contracts/VRFv2DirectFundingConsumer.sol",
  "abi": [
    {
      "inputs": [],
      "stateMutability": "nonpayable",
      "type": "constructor"
    },
    {
      "anonymous": false,
      "inputs": [
        {
          "indexed": true,
          "internalType": "address",
          "name": "from",
          "type": "address"
        },
        {
          "indexed": true,
          "internalType": "address",
          "name": "to",
          "type": "address"
        }
      ],
      "name": "OwnershipTransferRequested",
      "type": "event"
    },
    {
      "anonymous": false,
      "inputs": [
        {
          "indexed": true,
          "internalType": "address",
          "name": "from",
          "type": "address"
        },
        {
          "indexed": true,
          "internalType": "address",
          "name": "to",
          "type": "address"
        }
      ],
      "name": "OwnershipTransferred",
      "type": "event"
    },
    {
      "anonymous": false,
      "inputs": [
        {
          "indexed": false,
          "internalType": "uint256",
          "name": "requestId",
          "type": "uint256"
        },
        {
          "indexed": false,
          "internalType": "uint256[]",
          "name": "randomWords",
          "type": "uint256[]"
        },
        {
          "indexed": false,
          "internalType": "uint256",
          "name": "payment",
          "type": "uint256"
        }
      ],
      "name": "RequestFulfilled",
      "type": "event"
    },
    {
      "anonymous": false,
      "inputs": [
        {
          "indexed": false,
          "internalType": "uint256",
          "name": "requestId",
          "type": "uint256"
        },
        {
          "indexed": false,
          "internalType": "uint32",
          "name": "numWords",
          "type": "uint32"
        }
      ],
      "name": "RequestSent",
      "type": "event"
    },
    {
      "inputs": [],
      "name": "acceptOwnership",
      "outputs": [],
      "stateMutability": "nonpayable",
      "type": "function"
    },
    {
      "inputs": [
        {
          "internalType": "uint256",
          "name": "_requestId",
          "type": "uint256"
        }
      ],
      "name": "getRequestStatus",
      "outputs": [
        {
          "internalType": "uint256",
          "name": "paid",
          "type": "uint256"
        },
        {
          "internalType": "bool",
          "name": "fulfilled",
          "type": "bool"
        },
        {
          "internalType": "uint256[]",
          "name": "randomWords",
          "type": "uint256[]"
        }
      ],
      "stateMutability": "view",
      "type": "function"
    },
    {
      "inputs": [],
      "name": "lastRequestId",
      "outputs": [
        {
          "internalType": "uint256",
          "name": "",
          "type": "uint256"
        }
      ],
      "stateMutability": "view",
      "type": "function"
    },
    {
      "inputs": [],
      "name": "owner",
      "outputs": [
        {
          "internalType": "address",
          "name": "",
          "type": "address"
        }
      ],
      "stateMutability": "view",
      "type": "function"
    },
    {
      "inputs": [
        {
          "internalType": "uint256",
          "name": "_requestId",
          "type": "uint256"
        },
        {
          "internalType": "uint256[]",
          "name": "_randomWords",
          "type": "uint256[]"
        }
      ],
      "name": "rawFulfillRandomWords",
      "outputs": [],
      "stateMutability": "nonpayable",
      "type": "function"
    },
    {
      "inputs": [
        {
          "internalType": "uint256",
          "name": "",
          "type": "uint256"
        }
      ],
      "name": "requestIds",
      "outputs": [
        {
          "internalType": "uint256",
          "name": "",
          "type": "uint256"
        }
      ],
      "stateMutability": "view",
      "type": "function"
    },
    {
      "inputs": [],
      "name": "requestRandomWords",
      "outputs": [
        {
          "internalType": "uint256",
          "name": "requestId",
          "type": "uint256"
        }
      ],
      "stateMutability": "nonpayable",
      "type": "function"
    },
    {
      "inputs": [
        {
          "internalType": "uint256",
          "name": "",
          "type": "uint256"
        }
      ],
      "name": "s_requests",
      "outputs": [
        {
          "internalType": "uint256",
          "name": "paid",
          "type": "uint256"
        },
        {
          "internalType": "bool",
          "name": "fulfilled",
          "type": "bool"
        }
      ],
      "stateMutability": "view",
      "type": "function"
    },
    {
      "inputs": [
        {
          "internalType": "address",
          "name": "to",
          "type": "address"
        }
      ],
      "name": "transferOwnership",
      "outputs": [],
      "stateMutability": "nonpayable",
      "type": "function"
    },
    {
      "inputs": [],
      "name": "withdrawLink",
      "outputs": [],
      "stateMutability": "nonpayable",
      "type": "function"
    }
  ],
  "bytecode": "0x60c0604052620aae6060055f6101000a81548163ffffffff021916908363ffffffff1602179055506003600560046101000a81548161ffff021916908361ffff1602179055506001600560066101000a81548163ffffffff021916908363ffffffff16021790555073779877a7b0d9e8603169ddbd7836e478b46247896005600a6101000a81548173ffffffffffffffffffffffffffffffffffffffff021916908373ffffffffffffffffffffffffffffffffffffffff16021790555073ab18414cd93297b0d12ac29e63ca20f515b3db4660065f6101000a81548173ffffffffffffffffffffffffffffffffffffffff021916908373ffffffffffffffffffffffffffffffffffffffff1602179055503480156200011c575f80fd5b5033805f6005600a9054906101000a900473ffffffffffffffffffffffffffffffffffffffff1660065f9054906101000a900473ffffffffffffffffffffffffffffffffffffffff168173ffffffffffffffffffffffffffffffffffffffff1660808173ffffffffffffffffffffffffffffffffffffffff16815250508073ffffffffffffffffffffffffffffffffffffffff1660a08173ffffffffffffffffffffffffffffffffffffffff168152505050505f73ffffffffffffffffffffffffffffffffffffffff168273ffffffffffffffffffffffffffffffffffffffff160362000240576040517f08c379a0000000000000000000000000000000000000000000000000000000008152600401620002379062000459565b60405180910390fd5b815f806101000a81548173ffffffffffffffffffffffffffffffffffffffff021916908373ffffffffffffffffffffffffffffffffffffffff1602179055505f73ffffffffffffffffffffffffffffffffffffffff168173ffffffffffffffffffffffffffffffffffffffff1614620002c557620002c481620002ce60201b60201c565b5b505050620004e7565b3373ffffffffffffffffffffffffffffffffffffffff168173ffffffffffffffffffffffffffffffffffffffff16036200033f576040517f08c379a00000000000000000000000000000000000000000000000000000000081526004016200033690620004c7565b60405180910390fd5b8060015f6101000a81548173ffffffffffffffffffffffffffffffffffffffff021916908373ffffffffffffffffffffffffffffffffffffffff1602179055508073ffffffffffffffffffffffffffffffffffffffff165f8054906101000a900473ffffffffffffffffffffffffffffffffffffffff1673ffffffffffffffffffffffffffffffffffffffff167fed8889f560326eb138920d842192f0eb3dd22b4f139c87a2c57538e05bae127860405160405180910390a350565b5f82825260208201905092915050565b7f43616e6e6f7420736574206f776e657220746f207a65726f00000000000000005f82015250565b5f62000441601883620003fb565b91506200044e826200040b565b602082019050919050565b5f6020820190508181035f830152620004728162000433565b9050919050565b7f43616e6e6f74207472616e7366657220746f2073656c660000000000000000005f82015250565b5f620004af601783620003fb565b9150620004bc8262000479565b602082019050919050565b5f6020820190508181035f830152620004e081620004a1565b9050919050565b60805160a051611653620005255f395f81816101db0152818161073c015281816109fb01528181610a1c0152610b3701525f6109bf01526116535ff3fe608060405234801561000f575f80fd5b506004361061009c575f3560e01c8063a168fa8911610064578063a168fa891461011e578063d8a4676f1461014f578063e0c8628914610181578063f2fde38b1461019f578063fc2a88c3146101bb5761009c565b80631fe543e3146100a057806379ba5097146100bc5780638796ba8c146100c65780638da5cb5b146100f65780638dc654a214610114575b5f80fd5b6100ba60048036038101906100b59190610eef565b6101d9565b005b6100c4610275565b005b6100e060048036038101906100db9190610f49565b610404565b6040516100ed9190610f83565b60405180910390f35b6100fe610424565b60405161010b9190610fdb565b60405180910390f35b61011c61044b565b005b61013860048036038101906101339190610f49565b6105ad565b60405161014692919061100e565b60405180910390f35b61016960048036038101906101649190610f49565b6105d9565b604051610178939291906110ec565b60405180910390f35b6101896106e6565b6040516101969190610f83565b60405180910390f35b6101b960048036038101906101b49190611152565b61090f565b005b6101c3610923565b6040516101d09190610f83565b60405180910390f35b7f000000000000000000000000000000000000000000000000000000000000000073ffffffffffffffffffffffffffffffffffffffff163373ffffffffffffffffffffffffffffffffffffffff1614610267576040517f08c379a000000000000000000000000000000000000000000000000000000000815260040161025e906111d7565b60405180910390fd5b6102718282610929565b5050565b60015f9054906101000a900473ffffffffffffffffffffffffffffffffffffffff1673ffffffffffffffffffffffffffffffffffffffff163373ffffffffffffffffffffffffffffffffffffffff1614610304576040517f08c379a00000000000000000000000000000000000000000000000000000000081526004016102fb9061123f565b60405180910390fd5b5f805f9054906101000a900473ffffffffffffffffffffffffffffffffffffffff169050335f806101000a81548173ffffffffffffffffffffffffffffffffffffffff021916908373ffffffffffffffffffffffffffffffffffffffff1602179055505f60015f6101000a81548173ffffffffffffffffffffffffffffffffffffffff021916908373ffffffffffffffffffffffffffffffffffffffff1602179055503373ffffffffffffffffffffffffffffffffffffffff168173ffffffffffffffffffffffffffffffffffffffff167f8be0079c531659141344cd1fd0a4f28419497f9722a3daafe3b4186f6b6457e060405160405180910390a350565b60038181548110610413575f80fd5b905f5260205f20015f915090505481565b5f805f9054906101000a900473ffffffffffffffffffffffffffffffffffffffff16905090565b61045361092d565b5f6005600a9054906101000a900473ffffffffffffffffffffffffffffffffffffffff1690508073ffffffffffffffffffffffffffffffffffffffff1663a9059cbb338373ffffffffffffffffffffffffffffffffffffffff166370a08231306040518263ffffffff1660e01b81526004016104cf9190610fdb565b602060405180830381865afa1580156104ea573d5f803e3d5ffd5b505050506040513d601f19601f8201168201806040525081019061050e9190611271565b6040518363ffffffff1660e01b815260040161052b92919061129c565b6020604051808303815f875af1158015610547573d5f803e3d5ffd5b505050506040513d601f19601f8201168201806040525081019061056b91906112ed565b6105aa576040517f08c379a00000000000000000000000000000000000000000000000000000000081526004016105a190611362565b60405180910390fd5b50565b6002602052805f5260405f205f91509050805f015490806001015f9054906101000a900460ff16905082565b5f8060605f60025f8681526020019081526020015f205f015411610632576040517f08c379a0000000000000000000000000000000000000000000000000000000008152600401610629906113ca565b60405180910390fd5b5f60025f8681526020019081526020015f206040518060600160405290815f8201548152602001600182015f9054906101000a900460ff16151515158152602001600282018054806020026020016040519081016040528092919081815260200182805480156106bf57602002820191905f5260205f20905b8154815260200190600101908083116106ab575b5050505050815250509050805f015181602001518260400151935093509350509193909250565b5f6106ef61092d565b61072d60055f9054906101000a900463ffffffff16600560049054906101000a900461ffff16600560069054906101000a900463ffffffff166109bc565b905060405180606001604052807f000000000000000000000000000000000000000000000000000000000000000073ffffffffffffffffffffffffffffffffffffffff16634306d35460055f9054906101000a900463ffffffff166040518263ffffffff1660e01b81526004016107a49190611406565b602060405180830381865afa1580156107bf573d5f803e3d5ffd5b505050506040513d601f19601f820116820180604052508101906107e39190611271565b81526020015f151581526020015f67ffffffffffffffff81111561080a57610809610db3565b5b6040519080825280602002602001820160405280156108385781602001602082028036833780820191505090505b5081525060025f8381526020019081526020015f205f820151815f01556020820151816001015f6101000a81548160ff0219169083151502179055506040820151816002019080519060200190610890929190610cf5565b50905050600381908060018154018082558091505060019003905f5260205f20015f9091909190915055806004819055507fcc58b13ad3eab50626c6a6300b1d139cd6ebb1688a7cced9461c2f7e762665ee81600560069054906101000a900463ffffffff1660405161090492919061141f565b60405180910390a190565b61091761092d565b61092081610bcb565b50565b60045481565b5050565b5f8054906101000a900473ffffffffffffffffffffffffffffffffffffffff1673ffffffffffffffffffffffffffffffffffffffff163373ffffffffffffffffffffffffffffffffffffffff16146109ba576040517f08c379a00000000000000000000000000000000000000000000000000000000081526004016109b190611490565b60405180910390fd5b565b5f7f000000000000000000000000000000000000000000000000000000000000000073ffffffffffffffffffffffffffffffffffffffff16634000aea07f00000000000000000000000000000000000000000000000000000000000000007f000000000000000000000000000000000000000000000000000000000000000073ffffffffffffffffffffffffffffffffffffffff16634306d354886040518263ffffffff1660e01b8152600401610a739190611406565b602060405180830381865afa158015610a8e573d5f803e3d5ffd5b505050506040513d601f19601f82011682018060405250810190610ab29190611271565b878787604051602001610ac7939291906114ca565b6040516020818303038152906040526040518463ffffffff1660e01b8152600401610af493929190611579565b6020604051808303815f875af1158015610b10573d5f803e3d5ffd5b505050506040513d601f19601f82011682018060405250810190610b3491906112ed565b507f000000000000000000000000000000000000000000000000000000000000000073ffffffffffffffffffffffffffffffffffffffff1663fc2a88c36040518163ffffffff1660e01b8152600401602060405180830381865afa158015610b9e573d5f803e3d5ffd5b505050506040513d601f19601f82011682018060405250810190610bc29190611271565b90509392505050565b3373ffffffffffffffffffffffffffffffffffffffff168173ffffffffffffffffffffffffffffffffffffffff1603610c39576040517f08c379a0000000000000000000000000000000000000000000000000000000008152600401610c30906115ff565b60405180910390fd5b8060015f6101000a81548173ffffffffffffffffffffffffffffffffffffffff021916908373ffffffffffffffffffffffffffffffffffffffff1602179055508073ffffffffffffffffffffffffffffffffffffffff165f8054906101000a900473ffffffffffffffffffffffffffffffffffffffff1673ffffffffffffffffffffffffffffffffffffffff167fed8889f560326eb138920d842192f0eb3dd22b4f139c87a2c57538e05bae127860405160405180910390a350565b828054828255905f5260205f20908101928215610d2f579160200282015b82811115610d2e578251825591602001919060010190610d13565b5b509050610d3c9190610d40565b5090565b5b80821115610d57575f815f905550600101610d41565b5090565b5f604051905090565b5f80fd5b5f80fd5b5f819050919050565b610d7e81610d6c565b8114610d88575f80fd5b50565b5f81359050610d9981610d75565b92915050565b5f80fd5b5f601f19601f8301169050919050565b7f4e487b71000000000000000000000000000000000000000000000000000000005f52604160045260245ffd5b610de982610da3565b810181811067ffffffffffffffff82111715610e0857610e07610db3565b5b80604052505050565b5f610e1a610d5b565b9050610e268282610de0565b919050565b5f67ffffffffffffffff821115610e4557610e44610db3565b5b602082029050602081019050919050565b5f80fd5b5f610e6c610e6784610e2b565b610e11565b90508083825260208201905060208402830185811115610e8f57610e8e610e56565b5b835b81811015610eb85780610ea48882610d8b565b845260208401935050602081019050610e91565b5050509392505050565b5f82601f830112610ed657610ed5610d9f565b5b8135610ee6848260208601610e5a565b91505092915050565b5f8060408385031215610f0557610f04610d64565b5b5f610f1285828601610d8b565b925050602083013567ffffffffffffffff811115610f3357610f32610d68565b5b610f3f85828601610ec2565b9150509250929050565b5f60208284031215610f5e57610f5d610d64565b5b5f610f6b84828501610d8b565b91505092915050565b610f7d81610d6c565b82525050565b5f602082019050610f965f830184610f74565b92915050565b5f73ffffffffffffffffffffffffffffffffffffffff82169050919050565b5f610fc582610f9c565b9050919050565b610fd581610fbb565b82525050565b5f602082019050610fee5f830184610fcc565b92915050565b5f8115159050919050565b61100881610ff4565b82525050565b5f6040820190506110215f830185610f74565b61102e6020830184610fff565b9392505050565b5f81519050919050565b5f82825260208201905092915050565b5f819050602082019050919050565b61106781610d6c565b82525050565b5f611078838361105e565b60208301905092915050565b5f602082019050919050565b5f61109a82611035565b6110a4818561103f565b93506110af8361104f565b805f5b838110156110df5781516110c6888261106d565b97506110d183611084565b9250506001810190506110b2565b5085935050505092915050565b5f6060820190506110ff5f830186610f74565b61110c6020830185610fff565b818103604083015261111e8184611090565b9050949350505050565b61113181610fbb565b811461113b575f80fd5b50565b5f8135905061114c81611128565b92915050565b5f6020828403121561116757611166610d64565b5b5f6111748482850161113e565b91505092915050565b5f82825260208201905092915050565b7f6f6e6c792056524620563220777261707065722063616e2066756c66696c6c005f82015250565b5f6111c1601f8361117d565b91506111cc8261118d565b602082019050919050565b5f6020820190508181035f8301526111ee816111b5565b9050919050565b7f4d7573742062652070726f706f736564206f776e6572000000000000000000005f82015250565b5f61122960168361117d565b9150611234826111f5565b602082019050919050565b5f6020820190508181035f8301526112568161121d565b9050919050565b5f8151905061126b81610d75565b92915050565b5f6020828403121561128657611285610d64565b5b5f6112938482850161125d565b91505092915050565b5f6040820190506112af5f830185610fcc565b6112bc6020830184610f74565b9392505050565b6112cc81610ff4565b81146112d6575f80fd5b50565b5f815190506112e7816112c3565b92915050565b5f6020828403121561130257611301610d64565b5b5f61130f848285016112d9565b91505092915050565b7f556e61626c6520746f207472616e7366657200000000000000000000000000005f82015250565b5f61134c60128361117d565b915061135782611318565b602082019050919050565b5f6020820190508181035f83015261137981611340565b9050919050565b7f72657175657374206e6f7420666f756e640000000000000000000000000000005f82015250565b5f6113b460118361117d565b91506113bf82611380565b602082019050919050565b5f6020820190508181035f8301526113e1816113a8565b9050919050565b5f63ffffffff82169050919050565b611400816113e8565b82525050565b5f6020820190506114195f8301846113f7565b92915050565b5f6040820190506114325f830185610f74565b61143f60208301846113f7565b9392505050565b7f4f6e6c792063616c6c61626c65206279206f776e6572000000000000000000005f82015250565b5f61147a60168361117d565b915061148582611446565b602082019050919050565b5f6020820190508181035f8301526114a78161146e565b9050919050565b5f61ffff82169050919050565b6114c4816114ae565b82525050565b5f6060820190506114dd5f8301866113f7565b6114ea60208301856114bb565b6114f760408301846113f7565b949350505050565b5f81519050919050565b5f82825260208201905092915050565b5f5b8381101561153657808201518184015260208101905061151b565b5f8484015250505050565b5f61154b826114ff565b6115558185611509565b9350611565818560208601611519565b61156e81610da3565b840191505092915050565b5f60608201905061158c5f830186610fcc565b6115996020830185610f74565b81810360408301526115ab8184611541565b9050949350505050565b7f43616e6e6f74207472616e7366657220746f2073656c660000000000000000005f82015250565b5f6115e960178361117d565b91506115f4826115b5565b602082019050919050565b5f6020820190508181035f830152611616816115dd565b905091905056fea264697066735822122056cc70c5a79c998ba7f8210b90d4a783b362556ce103530db2031610aee6b29964736f6c63430008140033",
  "linkReferences": {},
  "deployedLinkReferences": {}
}